:020000040800F2
:1000000080270020D14D0008D94D0008DB4D0008A5
:10001000DD4D0008DF4D0008E14D00080000000044
:10002000000000000000000000000000E34D000898
:10003000E54D0008000000000101000889440008A7
:10004000EB4D0008EB4D0008EB4D0008EB4D0008B0
:10005000EB4D0008EB4D0008EB4D0008EB4D0008A0
:10006000EB4D0008EB4D0008EB4D0008EB4D000890
:10007000334A0008EB4D0008EB4D0008EB4D00083B
:10008000EB4D0008EB4D0008EB4D0008EB4D000870
:10009000EB4D0008EB4D0008EB4D0008EB4D000860
:1000A000EB4D0008EB4D0008EB4D0008EB4D000850
:1000B000EB4D0008EB4D0008EB4D0008EB4D000840
:1000C000EB4D0008EB4D0008EB4D0008EB4D000830
:1000D000EB4D00080D47000851480008BD490008D5
:1000E000EB4D0008EB4D0008EB4D0008DFF80CD09D
:1000F00007F05EFF00480047D90100088027002074
:1001000072B6EFF309800A4A0A4B20B1203880E822
:10011000F00F1168086018681060006890E8F00F30
:10012000203080F309884EF0040E62B6704700BF9D
:10013000C0000020C400002080F309887047000040
:100140002F483049086030482D4908601420486025
:1001500041F2707088606320C860652008611920D2
:1001600048610120886141F27070C86132200862E4
:1001700026484862264888624006C8620120086313
:1001800040F2DD711E48C187042180F83D101A211C
:1001900080F83B10112180F83A102E2180F8391098
:1001A0002820174981F83800002008640E20486490
:1001B000092088640B20C864164800680865154843
:1001C000001D0068486513480830006888650021F4
:1001D0000B48C0F89811704710B5FFF7B1FF0E49F2
:1001E000086880470C48416F0C4888470A48816F6F
:1001F0000B4888470849C86F804762B6002010BD89
:100200000C0200200C00002000350C0020F40E0031
:10021000A0860100E8F7FF1F100000203704000847
:10022000BD100008AA48D0F8981100F5C2708142AC
:1002300004D16438A649C1F8980106E0A448D0F872
:1002400098011430A249C1F89801704710B5A04830
:10025000D0F89801006900B910BD9D4AD2F89821E4
:10026000126910699B4A116E884700BFF4E710B508
:100270009748D0F89801C46804E0964A2069116E46
:100280008847A469002CF8D110BD00219048D0F80F
:100290009801016190488E49C1F89801704770B586
:1002A0000446302C13D007DC082C17D2DFE804F00A
:1002B0000E174D5B103F53A0A4F131000728F4D274
:1002C000DFE800F0184655073E4E9A0000BF00BF19
:1002D00000BF8048D0F8A010204688478FE07F48B4
:1002E00001780078401C7D4D28707A48C26E7CA051
:1002F000904784E000217648806F017001217448A6
:10030000C06F017000217248D0F880000170012197
:100310006F48D0F88400017000216D48D0F8880043
:10032000017001216A48D0F88C00017067E06948CB
:10033000816E4FF0FF308847054607F079FE5EE09A
:100340006448C1690320884759E0FFF77FFF56E002
:10035000FFF78DFF53E05F49D1F89C0080474EE0E6
:10036000FFF760FF4BE001205949886147E0594899
:100370005F4B4FF47A720121456D0020A847554824
:100380005B4B4FF4FA620121456D0846A84751487E
:10039000574B40F6B8320121456D0220A8474D4821
:1003A000534B4FF47A620121456D0320A847494819
:1003B0004F4B41F288320121456D0420A847454842
:1003C0004B4B41F270720121456D0520A847414811
:1003D000474B41F658320121456D0620A8473D485C
:1003E000434B41F658320121456D0720A84706E0EE
:1003F00000203749886100BFFFF747FF00BF00BFFB
:1004000070BD704710B5334831490C314268002047
:10041000904730482E4910314268012090472D48BE
:100420002B4914314268042090472A483149026F11
:100430000220904710BD08B5FFF7E4FF2648283892
:100440002349C1F898012348D0F888104FF4FA6086
:100450008847214814381E49C1F89801002410E04B
:100460001C48D0F8881064208847052094FBF0F1E0
:1004700000FB1140C1B21648D0F81001401C0155D4
:10048000641C102CECDB14481149C1F89801114888
:10049000816A0120884719E00E49D1F8840080471D
:1004A0000090009820F07F459DF80300012802D0BD
:1004B000022809D103E0E8B2FFF7F1FE05E00E499A
:1004C00009686818804700E000BF00BFE4E700004B
:1004D0000C020020100000202C030020000000204F
:1004E0004C6F672054657374203D2025640A00001A
:1004F0002502000803040008B800002010B5FE48DB
:10050000D0F89810FD488847FD48FC49F839C1F8F3
:10051000F80010BD10B5F848D0F89810F74814301E
:1005200088472A20F7490870002404E00021F54894
:10053000401C0155641C102CF8DBF249EF48F838D8
:10054000C0F8101110BD10B5EB48D0F89810EB486A
:1005500028308847EA494431E848F838C0F8201183
:10056000E548E949D0F89420E44828309047E3482A
:10057000F838E549086103208870E448C861E44818
:10058000086242F2107088624FF47A7048620D205F
:10059000087000204870D848DE49D0F89420D74829
:1005A00028309047D548F438DA490861032088702C
:1005B0006420C861002008620A2088620120486225
:1005C0000620087001204870CB48D349D0F890200D
:1005D000CA4828309047C948F038CF4908610320FD
:1005E00088700E20087001204870C348CB49D0F8AD
:1005F0009020C24828309047C048EC38C74908616D
:10060000032088700720087002204870BA48C44947
:10061000D0F89020B94828309047B848E838C04909
:100620000861032088700F20087002204870B248CB
:10063000BC49D0F89020B14828309047AF48E43802
:10064000B8490861032088700620087003204870AC
:10065000A948B549D0F89020A84828309047A74825
:10066000E038B1490861092088700120C870AF489E
:1006700048610F2008700320487010BD10B59E48D7
:10068000D0F898109D483C3088479D4988319B4858
:10069000F838C0F834119848A549D0F89420974804
:1006A0003C3090479548DC38A149086103208870A8
:1006B00041F64C50C8614FF47A600862C0108862FD
:1006C000486207200870002048708B489949D0F88C
:1006D00094208A483C3090478848D838954908612A
:1006E000032088703C20C8612820086201208862AD
:1006F00048620E200870002048707F488E49D0F86C
:1007000094207E483C3090477C48D4388A49086120
:10071000032088707D48C8618848086288488862DC
:1007200048628848C86006200870012048707248F6
:100730008549D0F8942071483C3090476F48D038B4
:1007400081490861032088707D48C86140100862B3
:1007500042F21070886248627A48C8600E200870C1
:100760000120487064487949D0F8942063483C30AF
:1007700090476248CC38754908610520887001208F
:1007800088807348C8614FF07E5008624FF07C50FB
:1007900088627048486207200870022048705648F6
:1007A0006D49D0F8902055483C3090475348C838A0
:1007B00069490861092088700020C870674848614D
:1007C000082008700220487010BD10B54A48D0F8C3
:1007D00098104A48503088474949CC314748F83842
:1007E000C0F8481144485E49D0F89420434850303E
:1007F00090474248B8385A4908610420887042F24C
:100800001070C8610120086264208862012048627B
:100810000F2008700020487037485249D0F89420C3
:100820003648503090473548B4384E490861032067
:1008300088706320C8610E2008620A208862012047
:10084000486209200870012048702B484649D0F8BA
:1008500094202A48503090472848B03842490861CF
:10086000032088700C20C861012008620A20886279
:10087000012048620C200870012048701E483B4946
:10088000D0F894201D48503090471C48AC38374968
:100890000861032088701F20C861012008620A20B7
:1008A0008862012048620F200870012048701248B9
:1008B0002F49D0F890201148503090470F48A83861
:1008C0002B490861072088700870022048700820B2
:1008D000888009482749D0F8902008485030904730
:1008E0000648A43823490861072088700F20087043
:1008F0000220487008203FE0100000200403002080
:10090000AC890008A8030020BC03002020F40E00DE
:10091000C0270900E8030020140400203004002050
:100920004C0400206804002084040020748900081E
:10093000A0040020CC040020F804002020A107001F
:10094000A08601006F12833A240500205005002084
:100950000000A040CDCCCC3D7C0500207C89000867
:1009600098050020C4050020F00500201C0600208A
:1009700048060020640600208880FB48FB49D0F828
:100980009020FB489047FA48F038F8490861072062
:1009900088700870032048700820888010BD10B54A
:1009A000F148D0F89810F24814308847F149F248DD
:1009B000C0F85C11EC48F149D0F89420EC481430B0
:1009C0009047ED483E30ED4908610220887040F6BE
:1009D0003400C8614FF4FA6008620A20886201207E
:1009E00048620520087002204870DF48E449D0F8CA
:1009F0009420DF4814309047DF483D30E0490861DB
:100A0000002088700C20C8610120086202208862E2
:100A1000012048620920087002204870D248D94954
:100A2000D0F89420D24814309047D3483B30D54971
:100A30000861002088701F20C86100200862012022
:100A4000886248620D20087002204870C648CE496E
:100A5000D0F89420C64814309047C7483C30CA4963
:100A60000861092088700020C870C84848610620C5
:100A7000C861002008620120886248620420087072
:100A800003204870B848C249D0F89420B8481430C0
:100A90009047B9483A30BE490861002088703B2031
:100AA000C86100200862012088624862092008703D
:100AB00003204870AC48B749D0F89420AC481430B3
:100AC0009047AD483930B3490861002088703B2019
:100AD000C861002008620120886248620C2008700A
:100AE00003204870A048AC49D0F89420A0481430A6
:100AF0009047A1483830A8490861002088703B2001
:100B0000C861002008620120886248620F200870D6
:100B10000320487010BD10B59348D0F89810944841
:100B200028308847934944319348C0F870118E4863
:100B30009A49D0F890208E48283090478E48006E11
:100B400096490861002088700220087000204870D3
:100B500085489349D0F890208548283090478648AA
:100B6000406E8F49086100208870032008700020C3
:100B700048707D488B49D0F890207D4828309047B8
:100B80007D48806E874908610020887004200870C5
:100B90000020487074488449D0F890207448283068
:100BA00090477548C06E8049086100208870052014
:100BB0000870002048706C487C49D0F894206C483C
:100BC000283090476C487030784908610020887060
:100BD0000A200870002048700120C86100200862C7
:100BE00001208862486260487149D0F894206048CA
:100BF00028309047604871306D4908610020887046
:100C00000B200870002048700120C8610020086295
:100C100001208862486254486649D0F894205448BC
:100C2000283090475448723062490861002088702B
:100C30000C200870002048700120C8610020086264
:100C400001208862486248485B49D0F894204848AF
:100C50002830904748487330574908610020887011
:100C60000D200870002048700120C8610020086233
:100C70000120886248623C485049D0F894203C48A2
:100C8000283090473C4874304C49086100208870F7
:100C90000E200870002048700120C8610020086202
:100CA00001208862486230484549D0F89420304895
:100CB00028309047304875304149086100208870DD
:100CC0000F200870002048700120C86100200862D1
:100CD00001208862486224483A49D0F8902024488C
:100CE000283090472448D0F89800364908610220FF
:100CF000887006200870012048701B483249D0F8DF
:100D000090201B48283090471B48D0F89C002E4963
:100D10000861022088700F20087001204870124876
:100D20002A49D0F890201248283090471248D0F82D
:100D3000A000264908610220887006200870022061
:100D4000487009482249D0F8902009482830904737
:100D50000948D0F8A4001E490861022088700F20BD
:100D600008700220487010BD10000020800600208E
:100D700054030020BC8A00080C0200209C060020BE
:100D8000C806002020070020F406002090890008F3
:100D90004C07002078070020A4070020D00700207F
:100DA000EC0700200808002024080020400800204C
:100DB0006C08002098080020C4080020F0080020DB
:100DC0001C09002048090020640900208009002037
:100DD0009C09002010B5C748D0F89810C64888472D
:100DE000C649C748C0F88411C248C649D0F8902007
:100DF000C1489047C248A830C249086100208870A5
:100E00000220087000204870BA48BF49D0F89020EE
:100E1000B9489047BA48A930BB490861002088709A
:100E20000320087000204870B248B849D0F89020DC
:100E3000B1489047B248AA30B44908610020887090
:100E40000420087000204870AA48B149D0F89020CA
:100E5000A9489047AA48AB30AD4908610020887086
:100E60000520087000204870A248AA49D0F89420B4
:100E7000A1489047A248BC30A6490861002088706C
:100E80000A200870002048700120C8610020086214
:100E900001208862486297489F49D0F8942096487C
:100EA00090479748BD309C490861002088700B200E
:100EB0000870002048700120C861002008620120ED
:100EC000886248628B489549D0F894208A489047B8
:100ED0008B48BE3091490861002088700C20087052
:100EE000002048700120C86100200862012088624B
:100EF000486280488A49D0F894207F4890478048CB
:100F0000BF3087490861002088700D2008700020DC
:100F100048700120C8610020086201208862486290
:100F200074488049D0F89420734890477448C03082
:100F30007C490861002088700E20087000204870ED
:100F40000120C86100200862012088624862694867
:100F50007549D0F89420684890476948C130724973
:100F60000861002088700F20087000204870012060
:100F7000C861002008620120886248625D486B49B0
:100F8000D0F890205C4890475B48A83867490861D2
:100F90000220887006200870012048705548644976
:100FA000D0F89020544890475348A63860490861CB
:100FB000022088700F200870012048704D485D495C
:100FC000D0F890204C4890474B48A43859490861C4
:100FD0000220887006200870022048704548564953
:100FE000D0F89020444890474348A23852490861BD
:100FF000022088700F200870022048703D484F4939
:10100000D0F894203C4890473B488E384B490861C3
:10101000062088700320087048704FF6FF70C86182
:101020000020086210208862012048620420888025
:1010300030484349D0F894202F4890472E489038A4
:101040003F49086106208870072008700320487017
:101050004FF6FF70C86100200862102088620120EE
:1010600048620420888023483649D0F894202248DA
:1010700090472148903833490861032088700F2039
:101080000870032048703048C861002008620A20B8
:1010900088620120486210BD10B5FFF72FFAFFF7F4
:1010A00039FAFFF750FAFFF7E9FAFFF78EFBFFF77F
:1010B00076FCFFF730FDFFF78DFE10BDFFF7ECFF6C
:1010C0000F48406B64302149086011E00C48406BC8
:1010D0001E49096888420BD30948406B64301B499C
:1010E0000860074AD2F89801024AD2F88C10884763
:1010F000ECE700001000002090030020008B0008A7
:101100000C020020B8090020D4090020F0090020BA
:101110000C0A0020280A0020540A0020800A00201F
:10112000AC0A0020D80A0020040B0020300B00205D
:101130004C0B0020680B0020840B0020A00B00202B
:10114000CC0B0020F80B00203F420F0004000020D1
:10115000704700BF0100A0F10100FBD1704700B54E
:10116000034602E00820FFF7F4FF1800A3F1010393
:10117000F8D100BD00B5034603E04FF4FA50FFF785
:10118000E8FF1800A3F10103F7D100BD10B5044634
:10119000102C02DB14A006F04BFF102C02DA1748CB
:1011A000005D10BD3020FCE713B504468DF8074004
:1011B0001348D0F88010019888471CBD10B572B64E
:1011C000104800F07F4010490860104800F07F4050
:1011D0000E49086000F0B1FD00F063F901F022FE55
:1011E00000F009FE10BD00000A4153534552543A25
:1011F00020686578203C2031360A0000448B0008C6
:1012000010000020BD110008B8000020BC00002024
:1012100002464FF080700860081F014602606FF0C0
:101220000103081F014603604FF01233081F0146F7
:1012300003604FF00333081F014603604FF0023391
:10124000081F014603605B10081F0146036000236E
:10125000081F014603604FF01133081F0146036069
:101260004FF01033081F014603604FF00933081F89
:10127000014603604FF00833081F014603604FF03A
:101280000733081F014603604FF00633081F01466D
:1012900003604FF00533081F014603604FF004332D
:1012A000081F014603600846704701600022426043
:1012B0008260704770B504468B492046FFF7A8FF4F
:1012C000054629468948FFF7F0FF70BD70B5044612
:1012D00087492046FFF79CFF054629468548FFF7CA
:1012E000E4FF70BD84490968884205D083490860DD
:1012F0004FF08051824A1160704710B57B4880687A
:1013000050B17A488068401E7849886008468068F5
:1013100010B90846FFF7E6FF10BD7A487A49026F18
:101320000120904771487449086008460068734975
:1013300008604FF080507249086062B600BFFEE757
:1013400010B5044672B671480088401C6F49088089
:10135000694800686749884215D16448406890B977
:101360000020624988600846446068480088401E42
:101370000004000C6549088000D162B65B48FFF7A5
:10138000B1FF012010BD6248008A28280ADB5F48AF
:101390000088401E0004000C5C49088000D162B641
:1013A0000020EFE75A48008A401C59490882084645
:1013B0008068046008468068001D88600846806870
:1013C0004968884203D952480068514988604F48AB
:1013D0000088401E0004000C4C49088000D162B611
:1013E0000120CFE710B572B648480088401C474935
:1013F00008803E48406800B139E04548008A00282E
:101400001FDD4348C06804684148C068001D40496A
:10141000C8600846008A401E08820846C0684968BD
:10142000884203D93A4800683949C860374800887B
:10143000401E0004000C3549088000D162B62046E9
:1014400010BD00202949886030480088401E0004F3
:10145000000C2E49088000D162B62648FFF742FFF3
:1014600072B62A480088401C2849088000BF1F48DF
:10147000446800201D49486024480088401E00043C
:10148000000C2249088000D162B62046D8E710B58A
:101490000446002C04DD154884601648FFF722FF3F
:1014A00010BD10B51B481A4908609C3048600846BA
:1014B0000068886008460068C86000200882FEF75F
:1014C0003BFE15480F49486714490E488167144987
:1014D000C1671449C0F884101349C0F8801013493B
:1014E000C0F8881010BD00001C13002060190020F7
:1014F0005C1900206C190020C0000020C4000020EE
:1015000004ED00E010000020FB120008080000209D
:10151000280C00203C0C0020B5120008CD12000859
:101520001B130008E5130008411300088F1400087E
:101530002DE9F04F95B0044625786778A0780A2801
:101540002CD2DFE800F0052C547BB1E7FEFDFCFB5C
:10155000206900781390139806F023FB0790A16888
:1015600006F0C3F80890E16806F017F9099006F054
:101570003BFB83465A46F8A10AA806F069FDC6B2AD
:1015800007E00AA8805DF54901EB07114855681E80
:10159000C5B23000A6F10101CEB2F2D1CCE1206992
:1015A000B0F900001290129806F0F2FA0790A168C4
:1015B00006F09BF80890E16806F0EFF8099006F055
:1015C00013FB83465A46E4A10AA806F041FDC6B2C1
:1015D00007E00AA8805DE14901EB07114855681E44
:1015E000C5B23000A6F10101CEB2F2D1A4E120696A
:1015F000B0F800A0504606F0D4FA0790A16806F0B3
:1016000074F80890E16806F0C8F8099006F0ECFA62
:1016100083465A46D0A10AA806F01AFDC6B207E0D2
:101620000AA8805DCD4901EB07114855681EC5B277
:101630003000A6F10101CEB2F2D17DE12069D0F8EF
:1016400000B0E06806F033FBCDE90601A06806F0C3
:101650002EFBCDE90201584606F0A8FACDE90001BB
:10166000DDE9022306F00FF9CDE90401DDE90623E7
:1016700006F0AFF9CDE9080106F0E3FA83465A46D1
:10168000B5A10AA806F0E4FCC6B207E00AA8805D8E
:10169000B24901EB07114855681EC5B23000A6F1EA
:1016A0000101CEB2F2D147E12069D0F80080E068B4
:1016B00006F0FDFACDE90601A06806F0F8FACDE9DA
:1016C0000201404606F083FACDE90001DDE902237C
:1016D00006F0D9F8CDE90401DDE9062306F079F931
:1016E000CDE9080106F0CCFA804642469CA10AA842
:1016F00006F0AEFCC6B207E00AA8805D974901EB90
:1017000007114855681EC5B23000A6F10101CEB2DE
:10171000F2D111E1206900681190A168119805F0DB
:10172000E4FF0990E16806F038F81190A088C6B28D
:10173000D6B18CA103C9CDE90F0103E0DBE0BCE029
:101740006CE02AE03046FFF721FD8DF83E0011984D
:1017500006F0ADFA02460B46CDE908010FA90AA82A
:1017600006F076FCC6B209E0119806F03DFA024692
:1017700079A109900AA806F06BFCC6B207E00AA896
:10178000805D764901EB07114855681EC5B23000EF
:10179000A6F10101CEB2F2D1CEE02069B0F800A0EE
:1017A000504606F0FEF90790A16805F09EFF0890EC
:1017B000E16805F0F2FF099006F02FFA1FFA80FAAF
:1017C000A088C6B29EB10CE00AF00F00FFF7DEFC65
:1017D000624901EB071148554FEA2A1A0DB1681EFC
:1017E000C5B23000A6F10101CEB2EDD115E0302036
:1017F0005A4901EB071148550CE008F00F00FFF7BC
:10180000C5FC564901EB071148554FEA2A1A0DB19C
:10181000681EC5B2BAF1000FEFD18DE02069D0F893
:101820000080E06806F043FACDE90601A06806F002
:101830003EFACDE90201404606F0C9F9CDE90001C2
:10184000DDE9022306F01FF8CDE90401DDE90623F6
:1018500006F0BFF8CDE9080106F012FA8046A0882C
:10186000C6B29EB10CE008F00F00FFF78FFC3B49B9
:1018700001EB071148554FEA18180DB1681EC5B2A3
:101880003000A6F10101CEB2EDD115E03020334990
:1018900001EB071148550CE008F00F00FFF776FC4C
:1018A0002E4901EB071148554FEA18180DB1681E73
:1018B000C5B2B8F1000FEFD13EE02069D0F800903A
:1018C000484605F00AFFC6B2E078012802D1681C3C
:1018D000801BC5B209E019F8010B204901EB071183
:1018E00048550F2D01DA681CC5B23000A6F1010180
:1018F000CEB2F0D120E0206990F80080606950F805
:101900002890484605F0E9FEC6B2E078012802D1E9
:10191000681C801BC5B209E019F8010B0F4901EBE7
:10192000071148550F2D01DA681CC5B23000A6F129
:101930000101CEB2F0D100BF00BF15B0BDE8F08FFD
:1019400010B50A480068046894B920224021034871
:1019500005F0B0FE11E0000025640000B819002079
:1019600025750000252E6E6600000000CC000020CA
:1019700040222146FE4805F08BFE10BD2DE9F041C6
:10198000FC48006847680FB9BDE8F08197F800800F
:1019900000241DE0002517E0781C465D052E02DBC3
:1019A000F5A006F045FBC4F10400B04205DCF048A8
:1019B00000EB041000F8058004E02020EC4901EB66
:1019C00004114855681CC5B2102DE5DB601CC4B27B
:1019D000042CDFDB00BFD7E710B5E6480068846859
:1019E00003E02046FFF7A4FDA469002CF9D110BD47
:1019F00010B5E0480068C46819E0DE480068006976
:101A0000A0420FD1E2480078401CC0B2E049087003
:101A1000082801D100200870DD480078042801DA88
:101A2000A46904E02046FFF783FDA46900BF002CF1
:101A3000E3D110BD70B5002423E00026002514E09A
:101A4000D44800EB0410405DC94901EB0411495D25
:101A5000884208D0C64800EB0410405DCD4901EB38
:101A6000041148550126681CC5B2102DE8DB36B1BB
:101A7000C84800EB0411C848026B20469047601C20
:101A8000C4B2042CD9DB70BD10B50446B94804605B
:101A9000FFF756FFFFF772FFFFF79EFFFFF7A8FF64
:101AA000FFF7C8FF10BD0021016041608160C16087
:101AB0000161704700220A618A808A604FF07E527D
:101AC000CA6000224A610122CA7082688A6181600C
:101AD000704700230B61CB610B624B628B628B8082
:101AE0008B604FF07E53CB6000234B610123CB70A2
:101AF00000238B61C3680BB9C1607047C26800E006
:101B000092699369002BFBD1916100BFF5E7994879
:101B10000068006930B997480068C068954909684D
:101B200008617047934800680069806991490968B5
:101B3000086100BFF5E72DE9F14F8AB08D480068D4
:101B4000046914B90BB0BDE8F08F276994F80280DE
:101B5000B8F10A0F7DD2DFE808F04805571567ADE8
:101B60005868EC472069B0F90060E06900B209905C
:101B7000206A00B20890606A00B20790A06A00B2C2
:101B800006900AE020690668E0690990206A0890DA
:101B9000606A0790A06A069000BF0A9830B10428D6
:101BA0000AD0302805D034280CD108E00798064424
:101BB00008E00698064405E00798361A02E0069801
:101BC000361A00BF00BF0998864201DD099E03E076
:101BD0000898864200DA089EB8F1030F01D13E60F2
:101BE00001E030B23880A5E000BF20690578E069E7
:101BF00000F0FF0B206AC0B20590606A00F0FF0998
:101C0000A06A00F0FF0A1BE000BF20690588E069B8
:101C10001FFA80FB206A80B20590606A1FFA80F983
:101C2000A06A1FFA80FA0BE000BF20690568D4F8AB
:101C30001CB0206A0590D4F82490D4F828A000BFE6
:101C40000A9838B1042809D0302805D0342813D197
:101C50000BE06EE04D440FE055440DE04D4501D2E0
:101C6000002501E0A5EB090506E0554501D2002558
:101C700001E0A5EB0A0500BF00BF5D4501D95D4647
:101C800003E00598854200D2059DB8F10A0F0FD2F6
:101C9000DFE808F0060E080E0B0E090C0E0500BF5B
:101CA0003D7005E000BF3D8002E000BF3D6000BF29
:101CB00000BF3FE0206900680490E0690390206A5B
:101CC0000290606A0190A06A00900A9830B10428DE
:101CD00010D0302808D0342818D111E00199049888
:101CE00005F003FD049011E00099049805F0FDFC57
:101CF00004900BE00199049805F049FD049005E07B
:101D00000099049805F043FD049000BF00BFDDE991
:101D1000031006F009F802D20398049006E0029935
:101D2000049805F0F7FF01D20298049004983860F7
:101D300000E000BF00BF00BF04E7002006E0202154
:101D40000B4A1154134A1154411CC8B24028F6DB07
:101D50001249114AC2F88C10114A0F49C1F890205B
:101D6000104AC1F89420104AC1F898200F4A1FE089
:101D7000B8190020CC0000200A4153534552543A70
:101D800020636F6C756D6E203C20350A00000000EA
:101D9000C80000207819002010000020891A0008CF
:101DA000B51A0008D31A0008A71A00080F1B00086C
:101DB000C1F89C20014AC1F8A0207047371B0008D9
:101DC00078B502460B46FF24FF2509E012F8010B07
:101DD00080EA04010B48405C80EA05040A48455C3F
:101DE0001800A3F10103F1D18DF801408DF80050E6
:101DF000BDF8000078BD10B500F0DBFF00F089FAF7
:101E000010BD0000548B0008548C0008F8B506463D
:101E10000C4621463046FFF7D3FF009035199DF858
:101E2000010005F8010B9DF800002870A41CFE4875
:101E30002146826C30469047F8BD2DE9F8430746AD
:101E4000FA480078FA490870F84840784870F7482E
:101E500000798DF80100F54840798DF80000BDF853
:101E6000000010F0070F06D0BDF80000012101EBC3
:101E7000E000C5B203E0BDF80000C0F3C705EC48C0
:101E80008570C61C002402E000203055641CAC4262
:101E9000FADB002414E03819E64951F82000E6493D
:101EA0000968085C01280AD106EBE400007804F018
:101EB000070201219140084306EBE4010870641C0D
:101EC000BDF800008442E6DBD9488078C01C00F0F1
:101ED000FF084146D648FFF799FFBDE8F8832DE992
:101EE000F8430746D1480078D1490870CF48407878
:101EF0004870CE4800798DF80100CC4840798DF8C3
:101F00000000BDF8000010F0070F05D0BDF800007C
:101F1000012101EBE00502E0BDF80000C510C44955
:101F20008D70CE1C002402E000203055641CAC42B1
:101F3000FADB002414E03819C04951F82000BE49EA
:101F40000968085C01280AD106EBE400007804F077
:101F5000070201219140084306EBE4010870641C6C
:101F6000BDF800008442E6DBB148807800F1030848
:101F70004146AF48FFF74AFFBDE8F8832DE9FC4131
:101F80000546AA480078AA490870A84840784870D1
:101F9000A64800798DF80500A44840798DF8040022
:101FA000BDF804004006000E8870CC1C002612E02C
:101FB0002846691C8DB2A24951F820009E49096843
:101FC000085A00909DF8010004F8010B9DF80000EC
:101FD00004F8010B761CBDF804008642E8DB944847
:101FE0008078C71C39469248FFF710FFBDE8FC8196
:101FF0002DE9FC4105468D4800788D4908708B48D5
:1020000040784870894800798DF805008748407904
:102010008DF80400BDF804004006000E8870CC1C4A
:10202000002612E02846691C8DB2864951F820002E
:1020300081490968085A00909DF8010004F8010BD5
:102040009DF8000004F8010B761CBDF804008642E0
:10205000E8DB77488078C71C39467548FFF7D6FE1D
:10206000BDE8FC8138B50446704800798DF8010060
:102070006E4840798DF80000BDF80000B0F57F4F44
:1020800007D101206B4951F824106B4A1268505453
:1020900006E00020674951F82410674A126850543E
:1020A0006148826C684801886048904738BDF8B53F
:1020B00005465E4800798DF801005C4840798DF84E
:1020C00000005A4EB61D00240FE006EBE400007835
:1020D00004F00701084100F001002919554A52F89F
:1020E0002110554A12685054641CBDF80000844207
:1020F000EBDB4F484D490A680260898881800621E0
:10210000FFF784FEF8BD38B50446484800798DF8DD
:102110000100464840798DF80000BDF800004949AB
:1021200051F82410444A126850523F48826C464885
:1021300001883E48904738BD7CB506463B4800794B
:102140008DF80500394840798DF80400374CE41DBE
:10215000002513E014F8010B8DF8010014F8010BB1
:102160008DF80000BDF800203046711C8EB2354954
:1021700051F82000304909680A526D1CBDF804006E
:102180008542E7DB2A4829490A68026089888180FC
:102190000621FFF73BFE7CBD00202B4908802B4920
:1021A00008802B490870704727490988FF2902DDFC
:1021B0000021254A118024490A880988491C224B9C
:1021C00019801A4988540021204A11800121204A8F
:1021D000117070471CB515480078012802D0FFF730
:1021E000DBFF1CBD18480088042802DCFFF7D4FF81
:1021F000F7E715480088811E0C48FFF7E1FD04460B
:1022000011480088801E0949085C8DF801000E48BD
:102210000088401E085C8DF80000BDF80000844274
:1022200018D0FFF7B9FFDCE710000020F81A0020F3
:10223000F8190020D00000200C000020E800002049
:10224000F8000020080100201A0100201C010020D5
:1022500018010020354880788DF805003348C07893
:102260008DF8040031484078052824D008DC012886
:102270000DD0022810D0032818D004282FD110E048
:1022800006281DD00F2820D0102828D122E0BDF824
:102290000400FFF7D2FD23E0BDF80400FFF71FFEA6
:1022A0001EE0BDF80400FFF769FE19E0BDF8040068
:1022B000FFF79EFE14E0BDF80400FFF7D3FE0FE029
:1022C000BDF80400FFF71FFF0AE0BDF80400FFF7A8
:1022D000EEFE05E0BDF80400FFF72EFF00E000BFB2
:1022E00000BFFFF759FF00BF7BE710B5104800782B
:1022F00001280DD10F480088401C0E49088008466F
:102300000088022804DD002009490870FFF762FFF9
:1023100010BD10B5FFF740FF07480849026F0020C5
:1023200090470548416C0648884710BDF81A0020C0
:10233000180100201C01002010000020EB220008E2
:10234000A92100080420F8490880062048800420BC
:1023500088800220C8800020F44908804880084610
:102360000088F3490880F148408848800120F149FD
:102370000870002048804870EF480068A830486026
:1023800001F10C008860012008730121E948C18136
:1023900000214173E8480068A930E649086101F16D
:1023A00018004861012008760221E248418300219B
:1023B0004176E1480068AA30DE49C86101F1240095
:1023C0000862012081F824000321DA48C184002139
:1023D00080F82510D8480068AB30D64988620021C3
:1023E000D448C1620120D549087000204880487057
:1023F000D1480068BC30486001F10C0088600120C1
:1024000008730121CD48C1814173CB480068BD30BC
:10241000CA49086101F118004861012008760221CB
:10242000C648418301214176C3480068BE30C34994
:10243000C86101F124000862012081F82400032111
:10244000BE48C184002180F82510BB480068BF3019
:10245000BA49886201F13000C862012081F8300079
:102460000421B6484186002180F83110B248006846
:10247000C030B249486301F13C008863012081F813
:102480003C000521AD48C187002180F83D10AA48D5
:102490000068C130A94908640021A84841640120AE
:1024A000A7490870002088804880A3480068DC3075
:1024B000886001F11000C860012008740121A04863
:1024C0008182002141829C480068DE309C498861FD
:1024D00001F12000C861012081F820000221984804
:1024E00081840021418494480068E03094498862E6
:1024F00001F13000C862012081F8300003219048CA
:102500008186002141868C480068E2308C498863CE
:1025100000218B48C16301208A490870002088800F
:102520000120488084480068F430886001F1100080
:10253000C8600120087401218248818241827E485E
:102540000068F6307F49886100217E48C16170478C
:102550001CB5012001907548408800EB400075498A
:1025600001EB800420787849087002204870E078F8
:102570008870A078C87005E0A468BDF80400401C0D
:1025800080B20190A0680028F6D19DF805006E4940
:1025900008719DF80400487106216B48FFF710FC94
:1025A00000909DF80100684988719DF80000C8718D
:1025B00066480821026D644890475C4800885C4981
:1025C00008805A484088488058484088BDF8041020
:1025D000084456494880084640885349098888423B
:1025E00004DB012051490880002048801CBD2DE9F2
:1025F000FC4100240026002001904C48408800EB5C
:1026000040004E4901EB800528784F490870E87872
:102610008870A878C87052E0686807786878B8420F
:1026200041D0012C00D14CE07CB905242FB1FF2012
:10263000454908710120887103E000204249087172
:10264000887100204049487133E00F24AFB1BDF8D4
:102650000400062101EBE0003B49085CBDF80410D2
:1026600001F00702012191400843BDF80410062241
:1026700002EBE101344A50541BE0BDF8040006218E
:1026800001EBE0003049085CBDF8041001F00702DE
:10269000012191408843BDF80410062202EBE101BC
:1026A000294A505405E00CB1012C01D1012400E06D
:1026B00007E0AD68BDF80400401C80B20190002D19
:1026C000AAD100BF20484470012C18D19DF8050004
:1026D0001D4908719DF80400487106211A48FFF74A
:1026E0006FFB00909DF80100174988719DF800006C
:1026F000C87116480821026D1348904754E0052C14
:1027000026D106211048FFF75BFB00909DF80100E1
:102710000D4988719DF80000C8710C480821026DB0
:102720000948904740E000002001002028010020D7
:102730002C010020F81B00200C000020281C002089
:10274000701C0020B01C0020D01C002010000020B5
:102750000F2C29D19DF80500FE4908719DF8040051
:102760004871BDF8040010F0070F06D0BDF8040052
:10277000012101EBE000C6B203E0BDF80400C0F3A4
:10278000C706B11DF348FFF71BFB00909DF8011031
:10279000B01DF04A11549DF80010F01D1154411C59
:1027A000ED48026DEB489047EC480088EC49088002
:1027B000EA4840884880BDF80400EA490880E748B4
:1027C0004088BDF804100844E44948800846408821
:1027D000E5494988884204DB0220E049088000205E
:1027E0004880BDE8FC8138B50025DC484088DF49D9
:1027F00001EB00142078D7490870042048706079F4
:1028000088702079C87002E0E468681CC5B2002CAA
:10281000FAD10020CF490871084645710621FFF71B
:10282000CFFA00909DF80100CA4988719DF8000018
:10283000C871C9480821026DC6489047C74800883A
:10284000C7490880C54840884880C4484088284413
:10285000C249488008464088C3498988884204DBC9
:102860000320BE4908800020488038BD2DE9FC4186
:10287000002400270025B9484088BD4901EB001617
:102880003078B4490870707988703079C87030E059
:10289000B068008800907088BDF8001088421DD094
:1028A000032C00D127E074B906249DF80100A94942
:1028B00008719DF8000048719DF80100C8719DF8ED
:1028C0000000087210E010249DF80110E81DA14AD4
:1028D00011549DF80010401C115405E00CB1032C5C
:1028E00001D1032400E006E0F668781CC7B2780640
:1028F000050E002ECCD100BF96484470032C15D194
:10290000002094490871084647710621FFF758FADC
:1029100001909DF805008F4988719DF80400C871E9
:102920008D480821026D8B4890472DE0062C11D16F
:1029300006218848FFF744FA01909DF80500854973
:1029400088719DF80400C87183480821026D814890
:10295000904719E0102C17D100207E4908710846D5
:1029600047718571E91DFFF72BFA01909DF805105D
:10297000E81D784A11549DF80410401C1154411C64
:102980007548026D73489047744800887449088000
:1029900072484088488073480780704840883844AF
:1029A0006E494880084640886F49C988884203DBE1
:1029B00000206A4908804880BDE8FC8110B50024E9
:1029C00011E066480088684931F8100050B9634842
:1029D0000088401C6149088008460088042801D10D
:1029E00000200880641C042CEBDB5C48008830B1BC
:1029F00001280AD002280ED0032818D111E05A4825
:102A0000008808B1FFF7A4FD11E05748408808B1DD
:102A1000FFF7EDFD0BE05448808808B1FFF7E3FEB7
:102A200005E05148C08808B1FFF720FF00BF00BF94
:102A300010BD30B503220023494C248804B130BDB9
:102A4000474C648804EB44044A4D05EB84000EE0D7
:102A5000494CA45C1C4104F001015C1C2346082C79
:102A600001D10023521C4170446821708068002805
:102A7000EED100BFE3E770B503220023384C248871
:102A8000012C00D070BD364C648804EB44043B4DEF
:102A900005EB840013E0447845682D78AC4207D1FB
:102AA000354CA45C1C4104F0010141704468217064
:102AB0005C1C2346082C01D10023521C8068294C41
:102AC00025882488641E274E3480002DE3D100BF62
:102AD000D8E708B50321224A1288022A00D008BD8F
:102AE0001F4A5288214B03EB021012E00A46491C90
:102AF000214B9A5C8DF801200A46491C9A5C8DF89E
:102B00000020BDF800204280BDF8002083681A80B4
:102B1000C0680028EAD100BFE1E718B50321104AD8
:102B20001288032A00D018BD0D4A5288104B03EBBF
:102B300002102EE0428883681B789A4227D10E4A01
:102B4000525C8DF801200C4B4A1C9A5C8DF80020D9
:102B500016E00000D01C00201000002028010020FA
:102B60002C0100203001002020010020701C0020DA
:102B7000B01C0020F81B0020D01D0020281C0020C5
:102B8000BDF800204280BDF8002083681A80891CAF
:102B9000C0688F4A13881288521E8D4C2280002BE9
:102BA000C8D100BFBFE78B490988012900D0704711
:102BB0008849498801EB4101874A02EB810041685D
:102BC0000978417000BFF2E782490988012900D0E5
:102BD00070478049498801EB41017F4A02EB81003F
:102BE00003E0416809784170806879490A8809885A
:102BF000491E774B1980002AF3D100BFE8E77549D9
:102C00000988032900D0704772494988734A02EB4A
:102C1000011081680988418000BFF4E76D49098887
:102C2000032900D070476B4949886C4A02EB0110B8
:102C300003E0816809884180C06865490A8809887D
:102C4000491E634B1980002AF3D100BFEAE7002038
:102C50006349088063490880634908707047604988
:102C60000988FF2902DD00215D4A11805C490A883C
:102C70000988491C5A4B19805C4988540021594ADB
:102C800011800121584A1170704738B554480088A6
:102C9000042802DCFFF7DBFF38BD554800785349B4
:102CA0000978884205D1524840785049497888428D
:102CB00002D0FFF7CCFFEFE749480088811E4B4860
:102CC000FFF77EF8044646480088801E4749085CA6
:102CD0008DF8010042480088401E085C8DF8000015
:102CE000BDF80000844202D0FFF7B1FFD4E73F48AF
:102CF0004078062826D006DC06282CD2DFE800F033
:102D00002B131019161C162823D004DC0F2816D0FC
:102D1000102820D119E017281AD02B281BD119E030
:102D2000FFF787FE18E0FFF7A6FE15E0FFF7D1FEDC
:102D300012E0FFF7F2FE0FE0FFF735FF0CE0FFF7C0
:102D400043FF09E0FFF75BFF06E0FFF767FF03E0E3
:102D500002E001E000E000BF00BFFFF778FF00BF26
:102D60009AE710B523480088401C80B221490880AA
:102D7000642803D100200880FFF720FE1A4800785D
:102D8000012815D117480088401C164908800846BC
:102D9000008802280CDD0020134908701648026CD8
:102DA0000F48018811489047FFF76FFFFFF74FFF6B
:102DB00010BD10B5FFF74BFFFFF7C4FA0E480F49DF
:102DC000026F002090470C48C16C0D48884710BD29
:102DD000300100202C010020281C0020B01C002005
:102DE000340100203601002032010020D01D0020D7
:102DF000D01C00201E01002010000020632D0008C0
:102E00005F2C000810B5002807DA0A07140E1A4ACA
:102E100000F00F031B1FD45403E00A07130E174AD8
:102E2000135410BD10B501F0A2FC01F037FD01F004
:102E300014FE00F0BCF800F0A6F900F0B7FB01F0BA
:102E400000F800F00DFD00F02FFE01F094F801F005
:102E500053FA01F0B6FE01F076FB4FF4A06002F0E9
:102E6000CFF90E214FF0FF30FFF7CCFF0F216FF0AD
:102E70000100FFF7C7FF10BD18ED00E000E400E01F
:102E8000002004E09E499F4A42F82010401C05287B
:102E9000F8DB70479B4A42F8201070479A499B48DC
:102EA0000068C0F89810881C98490968C1F89C000F
:102EB000801C96490968C1F8A000801C93490968E4
:102EC000C1F8A40070472DE9F04F89B04FF0000819
:102ED0004FE04FF00009CA4609E00AEB8A008C492E
:102EE00001EB400030F8180081440AF1010ABAF100
:102EF000080FF2DB4FEAD909B8F1040F08DA82496A
:102F000021F818907F4951F82810A1F800902EE080
:102F1000484604F046FE83464FF08B41584604F085
:102F200072FC019004F0C3FE4FF06632794BCDE99C
:102F3000020104F04EFD0446774A784B04F046FD4A
:102F4000774A784BCDE9040104F0B3FD0022764BBB
:102F5000CDE9060104F097FC064604F0BEFE834668
:102F6000584604F05AFE674951F82810088008F1C5
:102F70000108B8F1050FACDB6348008863490968B4
:102F8000A1F890006048418860480068A0F892105D
:102F90005D4881885D480068A0F894105A48C1884F
:102FA0005A480068A0F8961009B0BDE8F08F00B547
:102FB00091B001214FF4017002F0A4FC6020ADF843
:102FC000400000208DF8430010A9584802F0E6F9AF
:102FD00001214FF4047002F095FC3020ADF8400060
:102FE00000208DF8430010A9514802F0D7F94FF4A2
:102FF000004002F0EEFB4F4802F0C8FF00200B90AB
:1030000001208DF830008DF831004FF460200D90D4
:1030100000200E9005208DF83C000BA9454802F0D9
:10302000DCFF01231A460521424803F06EF8012314
:10303000022206213F4803F068F8012303220E21F3
:103040003C4803F062F8012304220F21394803F0C1
:103050005CF8042305221021364803F056F80120BD
:1030600003F06FF90121334802F0EEFF01213148EE
:1030700002F0DFFF2F4802F0FEFF00BF2D4802F0F4
:10308000FFFF0028FAD12B4803F004F800BF2948BD
:1030900003F005F80028FAD10121084602F025FCCA
:1030A000254803F091F923484C30009018480190CE
:1030B000002002902820039000200490802005909A
:1030C00040000690800007902020089000020990A0
:1030D00000200A906946184803F018FA01211548A3
:1030E00002F0E7FF0121144803F03BFAFFF7C8FEA6
:1030F000FFF7D4FE11481249486011B000BD00002E
:1031000040010020201F0020380100200C0000207A
:10311000D01E002066660A40E17A14AE47E1F63F11
:1031200022FDF675E09C713F000039400008014027
:10313000001001400024014008000240952E0008C4
:103140001000002021480068006E00781F490968BF
:1031500081F85C001D480068406E01781B480068DB
:1031600080F85D1019480068806E01781748006883
:1031700080F85E1015480068C06E0178134800683A
:1031800080F85F10704708B5114910480068016663
:10319000091D0E4800684166091D0C4800688166DB
:1031A000091D0A480068C1660121102002F0AAFB2F
:1031B0000F20ADF8000004208DF8030003208DF8E7
:1031C00002006946034802F0E9F808BD0C0000203F
:1031D000000122420010014038B5044601210420BC
:1031E00002F090FB0121082002F08CFBDCB980206A
:1031F000ADF8000010208DF8030003208DF80200C8
:103200006946FE4802F0CAF84EF20300ADF800002D
:1032100010208DF8030003208DF802006946F8485D
:1032200002F0BCF823E0012140F6010002F06AFB45
:103230000121022002F073FB8020ADF8000018206D
:103240008DF8030003208DF802006946EB4802F078
:10325000A5F84EF20300ADF8000018208DF8030029
:1032600003208DF802006946E54802F097F838BD62
:10327000E448006890F87010E2480068806F0170C0
:10328000E048006890F87110DE480068C06F017077
:10329000DC48006890F87210DA480068D0F88000C6
:1032A0000170D848006890F87310D6480068D0F8CC
:1032B00084000170D348006890F87410D148006809
:1032C000D0F888000170CF48006890F87510CD489C
:1032D0000068D0F88C000170704710B50446062CC9
:1032E00028D2DFE804F003090F151B210122042175
:1032F000C54803F08CFF1EE001220821C24803F0FC
:1033000086FF18E001220C21BF4803F080FF12E085
:1033100004220021BD4803F08BFF0CE0042211467B
:10332000BA4803F085FF06E004220821B74803F0FD
:103330007FFF00E000BF00BF10BD10B50446062CA3
:1033400028D2DFE804F003090F151B210022042115
:10335000AD4803F05CFF1EE000220821AA4803F0FC
:1033600056FF18E000220C21A74803F050FF12E09E
:1033700000221146A54803F05BFF0CE00022042167
:10338000A24803F055FF06E0002208219F4803F001
:103390004FFF00E000BF00BF10BD70B505460C46F2
:1033A000062D22D2DFE805F003080D12171CA1B28A
:1033B000954803F0C5FF19E0A1B2934803F0C2FF9E
:1033C00014E0A1B2904803F0BFFF0FE0A1B28F4814
:1033D00003F0B4FF0AE0A1B28C4803F0B1FF05E0AE
:1033E000A1B28A4803F0AEFF00E000BF00BF70BD8D
:1033F000F0B587B004460F4615461E46781E80B2CB
:10340000ADF81000681E80B2ADF814000020ADF8D1
:103410001600ADF812008DF818006020ADF800001D
:10342000B0B2ADF80600062C77D2DFE804F0031E38
:103430003954779904A9744803F0C2F90120ADF812
:1034400002000020ADF8080069466F4803F037FA23
:1034500008216D4803F025FE01216B4803F0E8FDCB
:103460000121694803F0DCFC9DE004A9664803F0F3
:10347000A7F90120ADF802000020ADF80800694668
:10348000614803F065FA08215F4803F015FE012149
:103490005D4803F0CDFD01215B4803F0C1FC82E0F3
:1034A00004A9594803F08CF90120ADF8020000206E
:1034B000ADF808006946544803F091FA08215248D3
:1034C00003F003FE0121504803F0B2FD01214E48F4
:1034D00003F0A6FC67E004A94C4803F071F9002052
:1034E000ADF802000420ADF804000020ADF80A0099
:1034F0006946464803F0A1F90821444803F0C8FD95
:103500000121424803F094FD0121404803F088FC6A
:1035100001213E4803F090FC45E043E004A93B480C
:1035200003F04EF90020ADF802000420ADF80400CD
:103530000020ADF80A006946344803F0C0F90821BC
:10354000324803F0AEFD0121304803F071FD012146
:103550002E4803F065FC01212C4803F06DFC22E0AD
:1035600004A92A4803F02CF90020ADF80200042039
:10357000ADF804000020ADF80A006946234803F0C6
:10358000E7F90821214803F097FD01211F4803F0C6
:103590004FFD01211D4803F043FC01211B4803F0AE
:1035A0004BFC00E000BF00BF07B0F0BD10B51849EC
:1035B000144800688167174912480068C167091DEF
:1035C00010480068C0F88010124934310D48006876
:1035D000C0F88410091D0B480068C0F88810091D48
:1035E00008480068C0F88C100B490C4841610C4930
:1035F00081610C49C1610C49416217E0000801403A
:10360000000C01400C00002000040040002C014090
:103610009C01214280812142D93100081000002004
:10362000DB3200083B3300089B330008024901628B
:103630000020FFF7D1FD10BDF13300080146F72946
:103640001ED008DC7F2913D0BF290FD0DF290BD073
:10365000EF2917D106E0FB2910D0FD290CD0FE2957
:1036600010D107E0002070470120FCE70220FAE7B4
:103670000320F8E70420F6E70520F4E70620F2E748
:103680000720F0E7FF20EEE70146F7291ED008DC0F
:103690007F2913D0BF290FD0DF290BD0EF2917D1F5
:1036A00006E0FB2910D0FD290CD0FE2910D107E03F
:1036B000302070473120FCE73220FAE73320F8E76A
:1036C0003420F6E73520F4E73620F2E73720F0E73C
:1036D000FF20EEE793490870704710B592480078D4
:1036E000C043914908700846007800284CD0FF2458
:1036F0008E480068006808B904F07F048C480068B0
:10370000006808B904F0BF048A480068006808B976
:1037100004F0DF0488480068006808B904F0EF048A
:103720000020864909680860012085490968086009
:10373000FDF70FFD7D480068006808B904F0F70444
:103740007B480068006808B904F0FB047948006809
:10375000006808B904F0FD0477480068006808B9FB
:1037600004F0FE04002076490968086001207349CE
:10377000096808606B48007810B1724804706DE009
:10378000FF207049087069E06F480078012803D174
:1037900000206E49096808606B480078002804DD45
:1037A00069480078401E6849087066480078FF281C
:1037B00011D0644800786649087000206549087097
:1037C00065480078401CC0B263490870142845DD84
:1037D0001420087042E05F480078401C5D49087082
:1037E00008460078022839DB022008705B48007820
:1037F00040B15A480078401E584908700020564988
:10380000087010BD54480078022800DAF9E75248E1
:103810000078142805D14E480078FFF735FF04469C
:103820000AE04D480078022805DB49480078FFF798
:1038300005FF044600E0FF24FF2C0CD021460120A8
:10384000FDF7B2FC01204149096808600A203E49A1
:1038500008704249087000203F49087000BFD0E757
:1038600008B501213E4801F068FE3E48374908602E
:103870003D4831490860001D2E490860001D2C4953
:1038800008603A482949086039482C490860001FF7
:103890002B49086001213C2002F034F8002028491F
:1038A0000968086001202549096808603020ADF8E2
:1038B000000010208DF8030003208DF802006946F7
:1038C0002C4801F06BFD0020204909680860102099
:1038D000ADF800008DF8030002208DF80200694663
:1038E000254801F05BFD4FF4E050ADF800004820A2
:1038F0008DF8030003208DF8020069461F4801F08F
:103900004DFD0420ADF8000048208DF80300032091
:103910008DF8020069461A4801F040FD19491A481D
:10392000816208BD490100204A0100205C0100209D
:1039300058010020540100205001002060010020A7
:103940006401002044010020480100204C010020B7
:1039500068010020460100204501002047010020A9
:1039600000043000900121422801224208812242B5
:1039700094812142000C01400008014000100140E8
:1039800000140140D53600081000002070B5044630
:1039900004F0F0004FF4780141EA002004F00F0138
:1039A00040EA011600207B490968086001207A4935
:1039B00009680860172520E026FA05F010F0010FCD
:1039C00004D0012075490968086003E000207349AC
:1039D000096808600A20FDF7C2FB01206D490968EB
:1039E00008600A20FDF7BBFB00206A4909680860EF
:1039F0000A20FDF7B4FB681E05B2002DDCDA0020BA
:103A000065490968086070BD70B5044604F0F000AF
:103A10004FF47A0141EA002004F00F0140EA011658
:103A200000205C490968086001205B49096808605A
:103A3000172520E026FA05F010F0010F04D0012030
:103A400056490968086003E0002054490968086085
:103A50000A20FDF784FB01204E49096808600A200E
:103A6000FDF77DFB00204B49096808600A20FDF73F
:103A700076FB681E05B2002DDCDA00204649096895
:103A8000086070BD70B505460C464549485DFFF7B6
:103A90007DFF002605E014F8010BFFF7B5FF701C51
:103AA000C6B2102EF7DB70BD08B50121102001F061
:103AB00029FF3C48374908603A48083036490860D1
:103AC000001F364908603748001F3749086000204A
:103AD0003049096808604FF40070ADF8000010200C
:103AE0008DF8030002208DF8020069462F4801F08E
:103AF00055FC00202849096808604FF48070ADF833
:103B0000000010208DF8030002208DF802006946A5
:103B1000264801F043FC0020204909680860802005
:103B2000ADF8000010208DF8030002208DF802008F
:103B300069461E4801F032FC00201B4909680860F4
:103B40004020ADF8000010208DF8030002208DF811
:103B500002006946154801F021FC6420FDF70AFBCC
:103B600001201149096808603020FFF70FFF0C2081
:103B7000FFF70CFF0120FFF709FF0220FFF706FF08
:103B80008020FFF703FF0120FFF700FF08490948E5
:103B9000016308BD6C010020700100207401002049
:103BA000548D00089C012242780100200010014041
:103BB000853A0008100000202DE9F047B848006859
:103BC000C08FA0F2DD784FEA980040F2B55148432B
:103BD00008F0030140F26D1201FB0207B0480068D3
:103BE00090F83D00A0F10109AD490968C88FC117DF
:103BF00000EB91718910B0EB810108D1002403E042
:103C0000A848005D0744641C4C45F9D307E0002434
:103C100003E0A548005D0744641C4C45F9D3A04867
:103C2000006890F83B003844471EA04878439C4900
:103C3000096891F83A10C1EB4112C2EB012100EB87
:103C400001119748006890F83900C0EB001001EBB3
:103C500080009349096891F83810451803F02CFC4E
:103C6000064606F10A00854203D805F10A00B04273
:103C700009D2012003F0B1FC03F05AFC284603F0FE
:103C800024FC03F055FCBDE8F0872DE9F04140F23B
:103C9000DD78002503F010FC06468448B6FBF0F4FE
:103CA000A01C0721B0FBF1F201FB12017C48006867
:103CB00080F83C1040F2B550B4FBF0F100FB114726
:103CC000B4FBF0F008EB800040F26D11B7FBF1F1AE
:103CD000084481B272480068C187B7F5896F0BD379
:103CE000A7F2474403E06F48405D241A6D1C6D48FD
:103CF000405DA042F7D30EE040F26D10B7FBF0F14B
:103D000000FB117403E06848405D241A6D1C66488E
:103D1000405DA042F7D3681CC1B26148006880F8DA
:103D20003D10601CC1B25E48006880F83B105F48DF
:103D3000B6FBF0F100FB11664FF46160B6FBF0F0EA
:103D4000C1B25748006880F83A104FF46160B6FB82
:103D5000F0F100FB11603C21B0FBF1F0C1B2504822
:103D6000006880F839104FF46160B6FBF0F100FB99
:103D700011603C21B0FBF1F201FB120048490968D7
:103D800081F83800BDE8F08110B5002401214FF022
:103D9000C05001F0C4FD012003F01FFC03F014FB30
:103DA000012001F01FFD05E0601C044640498842E7
:103DB00000D104E0412001F080FC0028F4D000BFD5
:103DC0003B48844204DA4FF4807001F024FD0CE09B
:103DD000012001F01DFD00BF612001F06EFC0028F4
:103DE000FAD04FF4007001F016FD012001F019FD2A
:103DF00003F0A6FB03F09CFB2D48844204DA47F64F
:103E0000FF7003F06FFB03E049F63F4003F06AFBED
:103E100003F08EFB0121084603F02CFB03F088FB26
:103E200010BD10B523480078401CC0B2214908706D
:103E3000642805D100200870FFF7BEFEFFF725FFBC
:103E400010BD10B5042003F0EEFAA0F590513439FE
:103E500007D0FFF799FF41F23421042003F0DDFA87
:103E60001BE001214FF0C05001F059FD012003F08B
:103E7000B4FB412001F021FC28B9612001F01DFCB8
:103E800008B9FFF781FF03F05BFB03F051FB012151
:103E9000084603F0EFFA03F04BFBFFF7F6FE10BD08
:103EA0000C000020648D0008588D0008805101002E
:103EB00080841E007C01002070B500243148006819
:103EC00000B970BD2F4805682AE005F001000128FF
:103ED00024D12D4850F83400401E2B4941F83400BD
:103EE0001CD10120A0402749096881432548016071
:103EF00026480068E04010F0010F0AD0224800EB8D
:103F0000C4004068224A1268811A0220FDF74CF969
:103F100004E01D4901EBC401486880476D08641C3A
:103F2000002DD2D100BFCCE730B5174C44F830207B
:103F300004EBC004636039B101248440134D2D6843
:103F40002C43124D2C6006E0012484400F4D2D6857
:103F5000A5430E4C2560012484400A4D2D682C4356
:103F6000084D2C6030BD01218140064A12688A4309
:103F700004490A6070470749074841650749816558
:103F80007047000080010020341F002084010020C1
:103F9000B8000020293F000810000020673F0008FB
:103FA00010B501F036FD352001F0CCFF10BD10B585
:103FB00001F03BFD10BD70B5ADF5027D002416E0AB
:103FC000D548006850F83400401C0ED0D248006834
:103FD00050F834004DF82400CF48006800EBC400CE
:103FE00040685DF82410086000E002E0641C802C4A
:103FF000E6DB00BFC9494C808020888008464088A5
:10400000022803DA0846408808804EE00026002493
:1040100013E0651C0BE05DF824005DF82510884274
:1040200004D100204DF82400012604E06D1CBB489B
:104030004088A842EFDC00BF641CB8484088401E9E
:10404000A042E6DC26B9B5484088B44908802CE097
:10405000FFF7A6FFB24801F022FD002500241CE076
:104060005DF8240000B917E05DF8240080905DF849
:10407000240000688190A84A8099126802EBC5006C
:1040800001F0DDFDA44A8199126802EBC502101D02
:1040900001F0D5FD6D1C00BF641CA0484088A04203
:1040A000DEDCFFF784FF9D490D809C4800889B491A
:1040B000C8809CA003F0BCFF984881889AA003F0B8
:1040C000B7FF964841889EA003F0B2FF934801884D
:1040D000A1A003F0ADFF9148C188A4A003F0A8FF00
:1040E0000DF5027D70BD70B5044625460CB9002063
:1040F00070BD8A48C08889498988884201D10020DA
:10410000F6E7FFF74DFF8549C988834A126802EB3D
:10411000C100294601F093FD804AD2887E4B296870
:104120001B6803EBC202101D01F089FDFFF73FFF82
:104130007A48C088401C7949C8800120D8E770B50A
:104140004FF440608E4948818E48086008460068F8
:104150004860002008818B4D002409E02878FF2862
:1041600004D18748456001460C8104E06D1C641C45
:10417000B4F5406FF2DB00BF83A003F059FF804825
:10418000418982A003F054FF7D48018985A003F096
:104190004FFF7B48016889A003F04AFF78484168D7
:1041A0008BA003F045FF78A003F042FF70BD10B56F
:1041B000FFF7F6FE002405E0724901EB842001F0D0
:1041C0006EFC641C032CF7DBFFF7F1FE6D486C49B5
:1041D000086048600020088110BD10B5024669499A
:1041E0000878FF2801D17FA010BD1AB96548644C3A
:1041F0002060F9E7501C18D161480368016800BFCE
:1042000011F8014B002CFBDC087800B9491C087838
:10421000FF2802D04248814203D95A48584C2060B6
:1042200001E0574801601846DEE7002A1DDD0EE078
:104230000878FF2801D16BA0D6E700BF08780028D6
:10424000FCDC491C00BF08780028FCD0491C100089
:10425000A2F10102ECD10878FF2802D03048814257
:1042600001D960A0C0E70846BEE760A0BCE70FB474
:10427000F0B59BB001AE002503E0002026F8020B4C
:104280006D1C322DF9DB21A81A9001A81A9A2099E9
:1042900003F0F2FE044600201A901CB91BB0F0BCDB
:1042A0005DF814FB641C14F0010F00D0641C34484A
:1042B00000892044B0F5406F01DB0020EEE7671075
:1042C00001AEFFF76DFE00250BE031882C4A5068E7
:1042D00001F0E5FC2A484068801C29494860B61C6A
:1042E0006D1CBD42F1DBFFF762FE254800892044CA
:1042F000234908810120D1E710B5FFF75CFE3F4953
:104300003F480166FFF71BFF3E493D4841663E4975
:1043100081663E49C16610BD880100208C010020E5
:1043200000FC00080A0A0A000AB2CECAFDD7DCB4B3
:10433000E6B4A2BFD5BCE4203D2025640000000007
:104340000AB2CECAFDD2D1B4E6B4A2BFD5BCE42035
:10435000203D2025640000000AB2CECAFDB4E6B4B8
:10436000A2B8F6CAFD203D20256400000AB2CECADC
:10437000FDD0B4C8EBB5E3203D202564000000006B
:10438000741F002000F000080A0A00000AC8D5D6F1
:10439000BED7DCB4E6B4A2BFD5BCE4203D20256482
:1043A000000000000AC8D5D6BED2D1B4E6B4A2BF80
:1043B000D5BCE420203D2025640000000AC8D5D6E5
:1043C000BEB6C1C8A1B5E3203D202578000000009D
:1043D0000AC8D5D6BED0B4C8EBB5E3203D202578B9
:1043E000000000004E756C6C0A0000004172677599
:1043F0006D656E744572726F720A0000E7400008C6
:1044000010000020AF410008DB4100086F420008A7
:1044100010B502462AB3012A12D0022A32D16048CE
:1044200000780A2801D1002010BD5D48037800788B
:10443000401C5B4C20705B4840F823100120F3E7E0
:1044400059480078042801D10020EDE75648037848
:104450000078401C544C2070544840F82310012030
:10446000E2E753480078022801D10020DCE75048F9
:1044700003780078401C4E4C20704E4840F82310C2
:104480000120D1E70020CFE710B54B480078401C51
:10449000C0B249490870642801D10020087045491C
:1044A00008688047434948688047FEF70CFDFEF7DF
:1044B00049FEFEF7DDFE404800780A2190FBF1F04E
:1044C000C4B23D48007890FBF1F201FB12000A28CB
:1044D00037D2DFE800F005090D11151A2225282929
:1044E0003249086880472CE030494868804728E016
:1044F0002E498868804724E02C49C868804720E01E
:10450000284951F8240080471BE02C480068406B84
:10451000401C2A490968486313E000F0C3F810E022
:10452000FFF7CAFC0DE00CE014B1012C06D102E04B
:10453000FFF777FC03E0FFF7D0F800E000BF00BF13
:1045400000BF00BF10BD30B51D48006842F21072B8
:10455000B0FBF2F1B1F1807F00D31DE021F07F408C
:10456000401E4FF0E022506150170F22002807DA5A
:1045700013071D0E134B00F00F04241F1D5503E0FD
:1045800013071C0E104B1C5400BF00204FF0E022FC
:1045900090610720106100BF0C490D48016730BDD4
:1045A000D4010020AC010020D50100209C01002096
:1045B000D601002094010020D70100200C0000202B
:1045C000E001002018ED00E000E400E011440008E4
:1045D0001000002092489349086000F2E7304860DC
:1045E00008460068886008460068C86000200882A5
:1045F000704701468B48008AB0F57A7F01DB0020C6
:10460000704788488068017086488068401C854AE9
:104610009060104680685268904203D981480068D3
:10462000804A906072B680480088401C7E4A1080A4
:104630007C48008A401C7B4A10827B480088401ED0
:104640000004000C784A108000D162B60120D7E740
:1046500070B504460D464DB103E014F8010BFFF7A9
:10466000C8FF2800A5F10105F7D10DE009E0207889
:104670000A2802D10D20FFF7BCFF14F8010BFFF749
:10468000B8FF20780028F2D170BD70B504460D4601
:104690000A2C02D10D20FFF7ACFFE0B2FFF7A9FF13
:1046A000204670BD5F48008A00B970475F480088A7
:1046B00010F0400F00D1F8E75A48C06800785B4915
:1046C000091D08805748C068401C5649C860084604
:1046D000C0684968884203D9524800685149C86097
:1046E00072B651480088401C4F4908804D48008AE6
:1046F000401E4C4908824C480088401E0004000CB3
:104700004949088000D162B600BFCEE710B540F23B
:104710002551464800F031FD38B1444800F0ADFC69
:10472000C4B221460120FCF73FFD08213F4800F0BC
:104730000EFD012802D13D4800F09FFC10BD10B5D0
:10474000012240F22551394800F02FFC0121374861
:1047500000F01FFC10BD10B5002240F22551334877
:1047600000F023FC0021314800F013FC10BD00B51F
:1047700087B0012144F2050001F0C4F84FF4007045
:10478000ADF8180003208DF81A0018208DF81B00D2
:1047900006A9274800F002FE4FF48060ADF818002B
:1047A00048208DF81B0006A9214800F0F7FD2520C0
:1047B0008DF8040003208DF8050002208DF8060016
:1047C00001208DF8070001A800F01FFD4FF4E13033
:1047D00002900020ADF80C00ADF80E00ADF810000E
:1047E000ADF814000C20ADF8120002A90F4800F03B
:1047F00044FB012240F225510C4800F0D6FB012178
:104800000A4800F0C6FBFFF7E5FE0A490A48416383
:104810000A4981630A49C1630A49016407B000BDBE
:10482000941F0020801F0020080000200038014055
:10483000000801403F4700081000002057470008CB
:10484000F345000851460008704751490860704719
:1048500070B55048058815F0200F06D000F00DFC0B
:10486000C4B220464A490968884715F0080F02D0AB
:10487000484800F002FC70BD70B505460C460021AA
:10488000454801F06EFE454805604548C0F8844043
:104890004FF00101404801F064FE70BD00B591B0D9
:1048A0000121052001F02EF80121480401F037F81C
:1048B0000420ADF8400003208DF8420018208DF848
:1048C000430010A9374800F069FD0820ADF840000A
:1048D00048208DF8430010A9324800F05FFD2620E3
:1048E0008DF82C0003208DF82D008DF82E0001206E
:1048F0008DF82F000BA800F088FC0121084600F07D
:10490000F4FF254801F060FD2248001D00900020C2
:104910000190102002900820039000200490802035
:10492000059000200690079008904FF400500990E1
:1049300000200A906946184801F0E8FD4FF4E13084
:104940000C900020ADF83400ADF83600ADF838001A
:10495000ADF83C000C20ADF83A000CA90D4800F071
:104960008CFA012240F225510A4800F01EFB012278
:104970008021084800F03EFB0121064800F009FBB9
:1049800009490A4841640A49816411B000BD000028
:10499000D801002000440040800002408C0002400A
:1049A00000000240000801404B48000810000020B1
:1049B00079480008704779490860704770B57848B1
:1049C000048814F0400F08D00020764908600246A1
:1049D00040F22661724800F0E8FA14F0200F07D088
:1049E0006F4800F04AFBC5B228466C490968884701
:1049F00014F0080F02D06A4800F03FFB70BD70B59C
:104A000005460C460120674908604FF000016648E2
:104A100001F0A7FD64481C3885620462002240F260
:104A200026615F4800F0C1FA01215F4801F099FD5D
:104A300070BD10B5202001F0CDFD01280CD1202043
:104A400001F0DBFD4021564800F08EFB012240F2D0
:104A50002661534800F0A9FA10BD00B591B00121BC
:104A6000092000F04FFF0121880400F058FF0020CA
:104A70004C4908604FF48070ADF840004FF00200E0
:104A80008DF842004FF010008DF8430010A9474800
:104A900000F084FC4FF48060ADF8400003208DF8F6
:104AA000420018208DF8430010A9404800F076FC21
:104AB0004FF40060ADF8400048208DF8430010A985
:104AC0003A4800F06BFC27208DF82C0003208DF86D
:104AD0002D008DF82E0001208DF82F000BA800F07E
:104AE00094FB4FF4E1300C900020ADF83400ADF8A9
:104AF0003600ADF83800ADF83C000C20ADF83A00B7
:104B00000CA9274800F0B9F9012240F225512448A8
:104B100000F04BFA0121224800F03BFA0C208DF8FE
:104B20002C0002208DF82D008DF82E0001208DF82C
:104B30002F000BA800F069FB0121084600F0D5FE0C
:104B4000194801F041FC1648001D0090002001901A
:104B500010200290082003900020049080200590EF
:104B600000200690079008904FF400500990002014
:104B70000A9069460C4801F0C9FC012202210A484A
:104B800001F0FBFC01228021054800F033FA0849BE
:104B90000848C1640849016511B000BDDC0100206E
:104BA00000480040A08121421C000240000C01404E
:104BB000B749000810000020FF4900080E490860AE
:104BC000704708B50121042000F09CFE00200A492E
:104BD00008604FF01000ADF800008DF803004FF0B2
:104BE00002008DF802006946044800F0D7FB044932
:104BF0000448C16208BD0000900121420008014044
:104C0000BD4B00081000002000210020674A1268F8
:104C100042F48032654B1A6000BF644A126802F4A5
:104C20000030491C10B9B1F5A06FF6D15F4A126887
:104C300012F4003F01D0012000E00020012842D101
:104C40005B4A126842F01002594B1A601A46126809
:104C500022F003021A601A46126842F002021A6039
:104C6000524A5268514B5A601A4652685A601A4664
:104C7000526842F480625A601A46526822F47C12EA
:104C80005A601A46526842F4E8125A601A4612688C
:104C900042F080721A6000BF444A126812F0007F2E
:104CA000FAD0424A526822F00302404B5A601A4638
:104CB000526842F002025A6000BF3C4A526802F059
:104CC0000C02082AF9D1704710B5FFF79DFF10BDFF
:104CD00010B53648006840F00100344908600846C5
:104CE0004068344908403149486008460068324904
:104CF00008402E4908600846006820F480200860BB
:104D00000846406820F4FE0048604FF41F008860A9
:104D1000FFF7DAFF4FF000602849086010BD10B5BA
:104D2000002100200022214B5B6803F00C0121B11F
:104D3000042906D0082928D107E0214B214C236003
:104D400027E01F4B1F4C236023E0184B5B6803F4E4
:104D50007010164B5B6803F48032022303EB904023
:104D600022B9194B4343174C23600DE00F4B5B688E
:104D700013F4003F04D0144B4343124C236003E070
:104D80000F4B43430F4C236003E00D4B0D4C23604E
:104D900000BF00BF054B5B68C3F303130B4CE15C22
:104DA000084B1B68CB40074C236010BD001002402D
:104DB000002002400000FFF8FFFFF6FE08ED00E0D3
:104DC00000127A00E001002000093D00E40100200B
:104DD0000648804706480047FEE7FEE7FEE7FEE795
:104DE000FEE7FEE7FEE7FEE7FEE7FEE7D14C000840
:104DF000ED00000810B50446FC48844209D10121A9
:104E0000880300F099FD00214FF4804000F094FDEC
:104E100032E0F748844209D10121480400F099FDAD
:104E200000214FF4003000F094FD25E0F148844269
:104E300009D10121880400F08CFD00214FF480206D
:104E400000F087FD18E0EC48844209D10121C80434
:104E500000F07FFD00214FF4002000F07AFD0BE010
:104E6000E648844208D10121080500F072FD0021C6
:104E70004FF4801000F06DFD10BD2DE9F04786B0B5
:104E800005460E460024A24600BFA1460027B08971
:104E900000B100BF2F462C8A4CF6FF700440F0880A
:104EA00004432C82AC894EF6F3100440B08831895B
:104EB0000843718908430443AC81AC8A4FF6FF4034
:104EC0000440B0890443AC8201A800F0AEFCC7489E
:104ED000874202D1DDF810A001E0DDF80CA0A8891E
:104EE00010F4004F08D00AEBCA0000EB0A1031683A
:104EF0004900B0FBF1F807E00AEBCA0000EB0A102A
:104F000031688900B0FBF1F86420B8FBF0F00401CF
:104F10002009642101FB1089A88910F4004F08D0F2
:104F2000322000EBC900B0FBF1F000F007000443B1
:104F300008E0322000EB09106421B0FBF1F000F032
:104F40000F0004432C8106B0BDE8F0874FF41651E2
:104F5000016000218180C18001810C2141810021FB
:104F60008181704710B502460020108A4FF2FF037E
:104F700018400B884C8823438C882343CC882343D8
:104F80001843108210BD0021018041808180C180C2
:104F9000704721B1828942F40052828104E0828903
:104FA0004DF6FF731A4082817047F0B50346002426
:104FB000002600250020A1F510676A3F00D100BF40
:104FC0001846C1F3421401F01F06012707FA06F53F
:104FD000012C01D10C3004E0022C01D1103000E092
:104FE00014301AB107682F43076002E00768AF4327
:104FF0000760F0BD10B51AB1838A0B43838204E0C9
:10500000838ACC43A4B22340838210BD028A4FF628
:10501000F0731A400282028A0A4302827047828930
:105020004FF2FF731A40828182890A43828170475E
:1050300021B1828942F00202828104E082894FF626
:10504000FD731A4082817047028A4FF6DF731A405F
:105050000282028A0A430282704721B1028A42F424
:105060008042028204E0028A4BF6FF731A400282F9
:105070007047C1F308028280704701468888C0F3F8
:1050800008007047818941F0010181817047028BDE
:10509000D2B20283028B42EA012202837047028B62
:1050A00002F47F420283028B0A430283704721B1DC
:1050B000828A42F02002828204E0828A4FF6DF7305
:1050C0001A408282704721B1828A42F010028282A5
:1050D00004E0828A4FF6EF731A408282704721B152
:1050E000828A42F00802828204E0828A4FF6F773D5
:1050F0001A408282704721B1828942F40042828143
:1051000003E08289C2F30E028281704721B1828A54
:1051100042F40062828204E0828A4FF2FF731A40F6
:1051200082827047828A4FF6FB731A408282828A9B
:105130000A438282704721B1828A42F0020282824F
:1051400004E0828A4FF6FD731A408282704702465D
:105150000020B1F5007F00D100BF13880B4201D0C1
:10516000012000E00020704701F40072B2F5007FDA
:1051700000D100BFCA430280704770B502460024C8
:10518000002300250020A1F510666A3E00D100BF73
:10519000C1F3421501F01F03012606FA03F3012DA6
:1051A00002D19689334006E0022D02D1168A33409F
:1051B00001E0968A33400C12012606FA04F41688A0
:1051C000344013B10CB1012000E0002070BD10B5D7
:1051D00000220023A1F510646A3C00D100BF0A122E
:1051E00001249440A3B2DC43048010BD0038014088
:1051F0000044004000480040004C00400050004087
:1052000031490143314A1160704770B500210023D4
:105210000F22C4780CB32D4C246804F4E064C4F568
:10522000E064210AC1F10403CA40447804FA03F19E
:105230008478144021430901254C0678A15504784F
:1052400004F01F050124AC4005786D114FF0E026F5
:1052500006EB8505C5F8004109E0047804F01F0558
:105260000124AC401B4D0678761145F8264070BDF0
:10527000194A0A400243154B1B1F1A60704739B187
:10528000124A121D12680243104B1B1D1A6006E0E1
:105290000E4A121D126882430C4B1B1D1A60704788
:1052A000042808D14FF0E021096941F004014FF0D2
:1052B000E022116107E04FF0E021096921F00401CB
:1052C0004FF0E022116170470000FA050CED00E09C
:1052D00000E400E080E100E080FFFF1F10B504461D
:1052E000CA48844208D10121042000F025FB002196
:1052F000042000F021FB46E0C548844208D101218A
:10530000082000F019FB0021082000F015FB3AE00E
:10531000C048844208D10121102000F00DFB00217B
:10532000102000F009FB2EE0BB48844208D1012187
:10533000202000F001FB0021202000F0FDFA22E0F7
:10534000B648844208D10121402000F0F5FA00213E
:10535000402000F0F1FA16E0B148844208D1012162
:10536000802000F0E9FA0021802000F0E5FA0AE050
:10537000AC48844207D10121801500F0DDFA0021FC
:10538000A01500F0D9FA10BD10B50121084600F0B3
:10539000D3FA0021012000F0CFFA10BD2DE9F04131
:1053A000024600250026002000230024002791F853
:1053B00003C00CF00F0591F803C01CF0100F03D0D0
:1053C00091F802C04CEA0505B1F800C01CF0FF0FCF
:1053D00031D0146800202BE04FF0010C0CFA00F3E0
:1053E000B1F800C00CEA03069E4220D183004FF0C2
:1053F0000F0C0CFA03F7BC4305FA03FC4CEA040457
:1054000091F803C0BCF1280F06D14FF0010C0CFA43
:1054100000FCC2F814C00AE091F803C0BCF1480FC8
:1054200005D14FF0010C0CFA00FCC2F810C0401C72
:105430000828D1D31460B1F800C0BCF1FF0F34DDEF
:10544000546800202EE000F1080C4FF0010808FA23
:105450000CF3B1F800C00CEA03069E4221D1830090
:105460004FF00F0C0CFA03F7BC4305FA03FC4CEAAF
:10547000040491F803C0BCF1280F05D100F1080C19
:1054800008FA0CF8C2F8148091F803C0BCF1480F78
:1054900007D100F1080C4FF0010808FA0CF8C2F827
:1054A0001080401C0828CED35460BDE8F0814FF630
:1054B000FF710180022181700421C1707047024692
:1054C000002093680B4201D0012000E000207047CB
:1054D0000146886880B2704702460020D3680B42BC
:1054E00001D0012000E0002070470146C86880B26A
:1054F000704701617047416170470AB1016100E086
:1055000041617047C16070474FF480320A43826145
:105510008161826182698269704702460020424B44
:1055200018684FF68073184040EA021008433E4B5B
:10553000186070473D49C8617047F0B50A460023BE
:1055400000240021002500F00046B6F1004F02D1F2
:10555000354EF16901E0344E7168C0F3034583B202
:1055600000F44016B6F5401F08D121F070612E4EB0
:10557000766826F070662C4F7E6012E000F480168C
:10558000B6F5801F06D1032606FA05F4A14341F0C3
:10559000706106E0460D360103FA06F6B14341F0AC
:1055A000706122B1460D360103FA06F6314300F070
:1055B0000046B6F1004F02D11B4EF16101E01A4ED8
:1055C0007160F0BD30B500228B071C0F0F2303FA6A
:1055D00004F2154B08338C1053F824309343124CCB
:1055E00008348D1044F8253023468C1053F82430AD
:1055F0008C07240F00FA04F423430B4C08348D105D
:1056000044F8253030BD0A49086070470008014061
:10561000000C01400010014000140140001801403E
:10562000001C014000200140000001400000204219
:10563000DC002042DC48006840F00100DA490860E4
:1056400008464068D9490840D7494860084600687C
:10565000D7490840D44908600846006820F48020F3
:1056600008600846406820F4FE0048604FF41F00C0
:1056700088607047CC49096821F48031CA4A1160BA
:105680001146096821F480211160B0F5803F03D0F4
:10569000B0F5802F0ED106E0C349096841F480318E
:1056A000C14A116007E0C049096841F4A021BE4A1F
:1056B000116000E000BF00BF704710B50146002236
:1056C000002300204A11012A02D1B74C236806E0CA
:1056D000022A02D1B44C236A01E0B34C636A01F0A0
:1056E0001F02012494401C4201D0012000E0002050
:1056F00010BD70B500240025002600BF3120FFF743
:10570000DCFF0646641CB4F5A06F01D0002EF5D076
:105710003120FFF7D2FF08B1012500E0002528461F
:1057200070BD01460020A04A106820F0F80040EA51
:10573000C100106070479F49086070470246002012
:10574000994B586820F47C1042EA01031843964BA9
:105750005860704797490866704701460020924A92
:10576000506820F003000843506070478E4840683E
:1057700000F00C007047014600208B4A506820F072
:10578000F00008435060704701460020864A506888
:1057900020F4E06008435060704701460020824AD0
:1057A000506820F4605040EAC1005060704729B151
:1057B0007D4A527A02437C4B5A7206E07A4A527A08
:1057C000C343DBB21A40784B5A7270477A4908607B
:1057D000704701460020744A506820F44040084356
:1057E000506070470021754A11706F4A82F820108E
:1057F000012802D0042808D103E001216F4A11706A
:1058000004E005216D4A117000E000BF00BF704741
:105810006B49086070476449096A0143624A116232
:105820007047674944390860704730B5002100224D
:10583000002400235C4D6D6805F00C0121B10429A2
:1058400005D0082923D105E05E4D056022E05D4DBD
:1058500005601FE0544D6D6805F47012524D6D687F
:1058600005F48034022505EB92421CB9564D554390
:1058700005600BE04C4D6D6815F4003F03D0524DB0
:105880005543056002E04F4D5543056002E04D4D24
:10589000056000BF00BF444D6D6805F0F0010909C7
:1058A0004A4D6B5C0568DD4045603F4D6D6805F411
:1058B000E061090A454D6B5C4568DD4085603A4D05
:1058C0006D6805F46051C90A404D6B5C4568DD4068
:1058D000C560354D6D6805F44041890B3C4D6B5CEE
:1058E000C568B5FBF3F5056130BD29B12E4A526993
:1058F00002432D4B5A6104E02B4A526982432A4BE2
:105900005A61704729B1284A92690243264B9A612D
:1059100004E0254A92698243234B9A61704729B17A
:10592000214AD2690243204BDA6104E01E4AD2695F
:1059300082431D4BDA61704729B11B4AD26802438A
:10594000194BDA6004E0184AD2688243164BDA60D9
:10595000704729B1144A12690243134B1A6104E0DB
:10596000114A12698243104B1A6170471449403939
:10597000086070470F49C86470470B49C871704789
:105980000948406A40F08070074948627047014604
:105990000020054A92680A4201D0012000E0002060
:1059A0007047014988727047001002400000FFF8FC
:1059B000FFFFF6FE00004242D800424220100240A3
:1059C0008004424200127A0000093D00F4010020E8
:1059D0000402002001460020FE4A106800F0380052
:1059E000084310607047FB49096821F00801F94A33
:1059F000116011460968014311607047F549096853
:105A000021F01001F34A1160114609680143116049
:105A10007047F148EF494860F04848607047EE48E9
:105A2000EC494860ED4848607047EA48006940F03A
:105A30008000E84908617047E648006940F080004E
:105A4000E449086170470420E249C96801F0010196
:105A5000012901D101200EE0DE49C96811F0040FCF
:105A600001D0022007E0DB49C96811F0100F01D016
:105A7000032000E00420704700B502460423FFF72E
:105A8000E2FF034603E0FFF7DEFF0346521E012B51
:105A900001D1002AF7D102B90523184600BD30B55F
:105AA000044604254FF43020FFF7E6FF0546042D99
:105AB00017D1C848006940F00200C649086108468D
:105AC0004461006940F0400008614FF43020FFF766
:105AD000D3FF0546BF48006941F6FD710840BD4946
